:100000000C9463000C948B000C948B000C948B006C
:100010000C948B000C948B000C948B000C948B0034
:100020000C948B000C948B000C948B000C948B0024
:100030000C948B000C948B000C948B000C948B0014
:100040000C948F000C948B000C94A6020C948002EC
:100050000C948B000C948B000C948B000C948B00F4
:100060000C948B000C948B000000000023002600F1
:10007000290000000000240027002A0000000008DA
:10008000000201000003040700000000000000005F
:10009000010204081020408001020408102001021F
:1000A0000408102000000000250028002B00040494
:1000B0000404040404040202020202020303030310
:1000C0000303CD0EB40E11241FBECFEFD8E0DEBF68
:1000D000CDBF11E0A0E0B1E0ECEDF5E202C005908B
:1000E0000D92A839B107D9F723E0A8E9B1E001C022
:1000F0001D92AA37B207E1F710E0C2E6D0E004C0D3
:100100002197FE010E94CE10C136D107C9F70E9487
:1001100074080C94E1120C9400000E94BB121F9210
:100120000F920FB60F9211242F933F938F939F93AB
:10013000AF93BF938091AC029091AD02A091AE02BB
:10014000B091AF023091AB0223E0230F2D3720F4A2
:100150000196A11DB11D05C026E8230F0296A11D21
:10016000B11D2093AB028093AC029093AD02A0939B
:10017000AE02B093AF028091B4029091B502A0910B
:10018000B602B091B7020196A11DB11D8093B402D1
:100190009093B502A093B602B093B702BF91AF910E
:1001A0009F918F913F912F910F900FBE0F901F90B5
:1001B0001895CF92DF92EF92FF920F931F93CF93F8
:1001C000DF936C017A018B01C0E0D0E0CE15DF0532
:1001D00081F0D8016D918D01D601ED91FC910190D6
:1001E000F081E02DC6010995892B11F02196EECF03
:1001F0007E01C701DF91CF911F910F91FF90EF908A
:10020000DF90CF900895089580E090E00895FC017C
:10021000538D448D252F30E0842F90E0821B930B6B
:10022000541710F0CF96089501970895FC01918D11
:10023000828D981761F0828DDF01A80FB11D5D9648
:100240008C91928D9F5F9F73928F90E008958FEFB6
:100250009FEF0895FC01918D828D981731F0828D6A
:10026000E80FF11D858D90E008958FEF9FEF0895C1
:10027000FC01918D228D892F90E0805C9F4F821B25
:1002800091098F739927089588EB92E00E943801B5
:1002900021E0892B09F420E0822F0895FC01848D50
:1002A000DF01A80FB11DA35ABF4F2C91848D90E0A0
:1002B00001968F739927848FA689B7892C93A0897B
:1002C000B1898C91837080648C93938D848D981305
:1002D00006C00288F389E02D80818F7D8083089598
:1002E000EF92FF920F931F93CF93DF93EC0181E086
:1002F000888F9B8D8C8D981305C0E889F989808142
:1003000085FD26C0F62E0B8D10E00F5F1F4F0F737B
:100310001127E02E8C8DE8120CC00FB607FCFACF27
:10032000E889F989808185FFF5CFCE010E944E01D1
:10033000F1CF8B8DFE01E80FF11DE35AFF4FF082E4
:100340009FB7F8940B8FEA89FB89808180620AC08D
:100350009FB7F894EE89FF896083E889F9898081E5
:100360008370806480839FBF81E090E0DF91CF91B4
:100370001F910F91FF90EF900895CF93DF93EC01C1
:10038000888D8823C9F0EA89FB89808185FD05C0B5
:10039000A889B9898C9186FD0FC00FB607FCF5CFEF
:1003A000808185FFF2CFA889B9898C9185FFEDCF37
:1003B000CE010E944E01E7CFDF91CF91089580E0FA
:1003C00090E0892B29F00E94440181110C940000D7
:1003D0000895CF93DF93C0E0D0E040E050E0BA0151
:1003E000CE010E940B062196C536D105B1F7DF91EB
:1003F000CF9108950F931F93CF93DF93EC018881E2
:100400009981009729F02A813B812617370788F4C4
:100410008B016F5F7F4F0E94F511009761F0998308
:1004200088831B830A832C813D81232B11F4FC01DB
:10043000108281E001C080E0DF91CF911F910F9188
:100440000895CF93DF93EC0188819981009711F093
:100450000E946C11198218821D821C821B821A82D2
:10046000DF91CF910895EF92FF920F931F93CF9357
:10047000DF93EC017B018A01BA010E94FA0181112C
:1004800004C0CE010E94210207C01D830C83B70166
:10049000888199810E94DA12CE01DF91CF911F915C
:1004A0000F91FF90EF900895CF93DF93EC016115CA
:1004B000710559F0FB0101900020E9F73197AF0178
:1004C000461B570B0E94330202C00E942102CE013C
:1004D000DF91CF910895FC01118210821382128264
:1004E000158214826115710551F0FB010190002005
:1004F000E9F73197AF01461B570B0C94330208956F
:100500001F920F920FB60F9211242F933F934F9388
:100510005F936F937F938F939F93AF93BF93EF936B
:10052000FF9388EB92E00E944E01FF91EF91BF9103
:10053000AF919F918F917F916F915F914F913F917B
:100540002F910F900FBE0F901F9018951F920F9232
:100550000FB60F9211242F938F939F93EF93FF93D6
:10056000E091C802F091C9028081E091CE02F09141
:10057000CF0282FD12C090818091D1028F5F8F7374
:100580002091D202821751F0E091D102F0E0E854BC
:10059000FD4F958F8093D10201C08081FF91EF9133
:1005A0009F918F912F910F900FBE0F901F901895D4
:1005B000DF92EF92FF920F931F93CF93DF930E94EE
:1005C000E901C0E0D0E040E050E06FEF70E0CE0124
:1005D0000E940B0640E050E06FEF70E0CE01865ABB
:1005E0009F4F0E940B062196CA30D10561F7C0E0EB
:1005F000D0E040E050E06FEF70E0CE010E940B06CB
:1006000040E050E06FEF70E0CE0109960E940B06CB
:100610002A96C436D10569F78091A0019091A10175
:100620004AE0489F9001499F300D11248091A2011A
:100630009091A30140E05FEF60E070E0820F931FB4
:100640000E940B0684EAE82E81E0F82E0CE112E00D
:10065000C0E0D0E09AE0D92E80910401909105018C
:10066000C817D907F4F4F701419151917F01F801BE
:10067000819191918F01D49E9001D59E300D1124CE
:10068000820F931F209729F440E05FEF68EC70E041
:1006900004C04FEF58EC60E070E00E940B0621961A
:1006A000DBCFDF91CF911F910F91FF90EF90DF9003
:1006B0000895CF92DF92EF92FF920F931F93CF9303
:1006C000DF930E94C90F28E0C22ED12CE12CF12C1F
:1006D000A70196010E9420106F5F7F4F7093A301C6
:1006E0006093A2010E94C90FA70196010E942010E9
:1006F0006F5F7F4F7093A1016093A001C0910401CF
:10070000D09105017E01EE0CFF1C00E010E01C16EC
:100710001D060CF5C8018E0D9F1DFC01E45EFD4F0A
:10072000408151812091A2013091A30142175307CA
:1007300071F4FC01EC55FE4F208131818091A001C4
:100740009091A1012817390711F40E9459032197AC
:1007500002501109DCCFDF91CF911F910F91FF90D3
:10076000EF90DF90CF900895CF93DF930E94E9013F
:1007700080919801909199014AE0489F9001499F8A
:10078000300D112480919A0190919B01820F931F4B
:100790004FEF50E060E070E001970E940B06C091BF
:1007A0009602D0919702D195C195D1098091960278
:1007B000909197028C179D077CF080919402909104
:1007C00095028C0F9D1F40E050E06FEF70E00197A5
:1007D0000E940B062196EACFC0919C01D0919D0109
:1007E000D195C195D10980919C0190919D018C1763
:1007F0009D0784F080919E0190919F018C0F9D1F19
:1008000040E05FEF60E070E0875A9F4F0E940B0668
:100810002196E9CFDF91CF910C948D060F931F9312
:10082000CF93DF938091B2029091B302892B31F480
:1008300081E090E09093B3028093B20280919A019C
:1008400090919B018130910529F49093B10280939E
:10085000B00209C08A30910531F42FEF3FEF309399
:10086000B1022093B0022091B0023091B102121671
:10087000130614F4019604C02115310529F00197DF
:1008800090939B0180939A014091B2025091B302E0
:10089000809198019091990157FF02C0019603C081
:1008A000452B29F0019790939901809398018091AD
:1008B000980190919901009709F057C0C091960254
:1008C000D0919702D195C195D109809196029091CE
:1008D00097028C179D070CF487C000919402109129
:1008E00095020C0F1D1F60919A0170919B01072EBC
:1008F000000C880B990B97FF03C00E94D20503C020
:100900004AE00E94910588E891E00E947F05C801B5
:100910000E94F30580919A0190919B010817190795
:1009200011F58AE891E00E947F05C8010E94F30555
:100930008FEF9FEF9093B3028093B2021C161D06B7
:1009400034F48091B0029091B102019607C0CD2B92
:10095000D9F18091B0029091B10201979093B102C8
:100960008093B00231C02196B0CF0997E9F560912C
:100970009C0170919D0188279927861B970B4091B8
:100980009A0150919B01E0919E01F0919F014E1BB5
:100990005F0B681779070CF46AC08417950711F587
:1009A00041E050E05093B3024093B202181619068A
:1009B0001CF42F5F3F4F04C0892B31F021503109C7
:1009C0003093B1022093B0028091980290919902E5
:1009D000049690939902809398020E940E040E94BC
:1009E0000E0402C00196D5CF809198019091990193
:1009F00097FF1BC060ED77E080E090E00E943A082E
:100A000085E090E090939B0180939A0190939901E7
:100A1000809398018FEF9FEF9093B3028093B2027F
:100A20001092B1021092B00220C00B9704F160ED59
:100A300077E080E090E00E943A0885E090E09093B3
:100A40009B0180939A01909399018093980181E092
:100A500090E09093B3028093B2021092B102109290
:100A6000B002109299021092980210929A02DF91AD
:100A7000CF911F910F910895CF92DF92EF92FF9245
:100A8000CF93DF93C42ED12CE12CF12CD62AE82A67
:100A9000C0E0D0E0B701A601CE010E940B0621966E
:100AA000C536D105B9F7DF91CF91FF90EF90DF9078
:100AB000CF9008953FB7F8948091B4029091B50219
:100AC000A091B602B091B70226B5A89B05C02F3FF2
:100AD00019F00196A11DB11D3FBFBA2FA92F982F64
:100AE0008827820F911DA11DB11DBC01CD0142E0DF
:100AF000660F771F881F991F4A95D1F708950097B1
:100B000069F0FC0101900020E9F73197AF01481B23
:100B1000590BBC0188EB92E00C94D90080E090E086
:100B200008958F929F92AF92BF920F931F93CF938E
:100B3000DF93CDB7DEB7A1970FB6F894DEBF0FBE37
:100B4000CDBF19A2423008F44AE08E010F5D1F4F5D
:100B5000842E912CA12CB12CA50194010E94891006
:100B6000E62FB901CA0101501109EA3014F4E05D21
:100B700001C0E95CD801EC93232B242B252B61F7D2
:100B8000C8010E947F05A1960FB6F894DEBF0FBE84
:100B9000CDBFDF91CF911F910F91BF90AF909F90EC
:100BA0008F900895CF92DF92EF92FF92CF93DF93D1
:100BB0006B017C016DE288EB92E00E947001EC0118
:100BC00066277727CB016C197D098E099F094AE0BA
:100BD0000E9491058C0F9D1FDF91CF91FF90EF90A8
:100BE000DF90CF900895CF93DF93BC01990F880BCE
:100BF000990B97FF03C00E94D20503C04AE00E94F0
:100C00009105EC0183E391E00E947F058C0F9D1F0D
:100C1000DF91CF9108958F929F92AF92BF92CF9222
:100C2000DF92EF92FF92CF93DF93209157033091A1
:100C300058038217930708F057C04B01AA24BB241E
:100C4000F82DC52ED62EE72EFF24AC2DE42F2091B3
:100C50005C03222361F0829E40011124F92D2C9D1A
:100C600060011124AD2D249FE0011124ED2F30915E
:100C70006203B0915F03E0905D03F0905E033B136D
:100C800008C09C01220F331F820F931F8E0D9F1DE2
:100C900019C0880F991F880F991F8E0D9F1D472F10
:100CA000552766277727EC01C30FD11D222349F072
:100CB00030E0249F7001259FF00C349FF00C11242C
:100CC0004F2D488320915F03EC01C20FD11DF883A3
:100CD00020916003EC01C20FD11DA8832091610314
:100CE000DC01A20FB11DEC93DF91CF91FF90EF904B
:100CF000DF90CF90BF90AF909F908F900895CF934B
:100D0000DF930E947F05EC0183E391E00E947F0561
:100D10008C0F9D1FDF91CF9108950F931F93CF9359
:100D2000DF93CDB7DEB729970FB6F894DEBF0FBEBD
:100D3000CDBF80915D0390915E03892B09F4A2C021
:100D40000E945A050091630310916403209165038A
:100D500030916603DC01CB01801B910BA20BB30B1E
:100D60008C329140A105B10558F3F8948091590354
:100D700090915A039A838983E0915D03F0915E0319
:100D8000DF0111968081898790915503E091670377
:100D9000F091680380916903992309F42EC0908132
:100DA000982B98879081809589238F838F818C835E
:100DB00088E08B8358856F8149853B812C818981AF
:100DC0009A81508347FD252F3A952083262F39F0AD
:100DD000441F00C000006083000000C0F2CF38E074
:100DE0004D9160830000019761F7F0936803E093F1
:100DF000670349873B832C8338C09081982B988761
:100E00009081809589238F838F818E8388E08D8365
:100E100058856F8149853D812E8189819A815083D2
:100E200047FD252F00C000C0208300C000C000C0C7
:100E300000C000C060830000262F3A9541F0441F97
:100E4000000000C000C000C000C000C0E8CF38E013
:100E50004D9100C0608300C0019709F7F0936803CB
:100E6000E093670349873D832E839A83898378942F
:100E70000E945A0560936303709364038093650333
:100E80009093660329960FB6F894DEBF0FBECDBFD0
:100E9000DF91CF911F910F910895FC018091740310
:100EA00090917503892B21F421E0309749F413C008
:100EB0008091700390917103309731F421E0FC012F
:100EC0008081882341F006C0BF010E94D11221E039
:100ED000892B09F020E0822F0895EF92FF920F9363
:100EE0001F93CF93DF93FC0100811181FB01C0812F
:100EF000D181F80181918F01882389F0082E000C9F
:100F0000990B0E94C0127C018991082E000C990B4C
:100F10000E94C012E816F90661F380E001C081E08A
:100F2000DF91CF911F910F91FF90EF900895833043
:100F300081F028F4813099F08230A1F00895873053
:100F4000A9F08830B9F08430D1F4809180008F7D91
:100F500003C0809180008F7780938000089584B5CE
:100F60008F7702C084B58F7D84BD08958091B000D5
:100F70008F7703C08091B0008F7D8093B00008957B
:100F8000CF93DF93282F30E0F901E458FF4F84918D
:100F9000F901E057FF4FD491F901E255FF4FC49199
:100FA000CC2391F081110E949707EC2FF0E0EE0F17
:100FB000FF1FEC55FF4FA591B4919FB7F8948C910A
:100FC000D095D823DC939FBFDF91CF910895CF9325
:100FD000DF9390E0FC01E057FF4F2491FC01E255C4
:100FE000FF4F8491882361F190E0880F991FFC01E5
:100FF000EE58FF4FC591D491FC01EC55FF4FA591E0
:10100000B491611109C09FB7F8948881209582231B
:101010008883EC912E230BC0623061F49FB7F89463
:101020008881322F309583238883EC912E2B2C934B
:101030009FBF06C08FB7F894E8812E2B28838FBFFF
:10104000DF91CF9108958E3008F08E5087708064C4
:1010500080937C0080917A00806480937A008091F4
:101060007A0086FDFCCF809178002091790090E095
:10107000922B08958F929F92AF92BF92CF92DF9260
:10108000EF92FF926B017C010E945A054B015C01BB
:10109000C114D104E104F104F1F00E945A05DC010D
:1010A000CB0188199909AA09BB09883E9340A1057B
:1010B000B10570F321E0C21AD108E108F10888EE09
:1010C000880E83E0981EA11CB11CC114D104E10458
:1010D000F10419F7DDCFFF90EF90DF90CF90BF9034
:1010E000AF909F908F900895CF93DF93CDB7DEB7E9
:1010F0002C970FB6F894DEBF0FBECDBF789484B5A1
:10110000826084BD84B5816084BD85B5826085BD03
:1011100085B5816085BD80916E00816080936E0091
:101120001092810080918100826080938100809183
:101130008100816080938100809180008160809334
:1011400080008091B10084608093B1008091B000F4
:1011500081608093B00080917A00846080937A00EF
:1011600080917A00826080937A0080917A00816019
:1011700080937A0080917A00806880937A00109240
:10118000C100E091C802F091C90282E08083E09141
:10119000C402F091C5021082E091C602F091C7022C
:1011A0008FEC80831092D002E091CC02F091CD02BE
:1011B00086E08083E091CA02F091CB028081806159
:1011C0008083E091CA02F091CB02808188608083A5
:1011D000E091CA02F091CB02808180688083E09127
:1011E000CA02F091CB0280818F7D808380E00E94D3
:1011F0002308BC01990F880B990B611571058105B6
:10120000910511F00E94171060E082E10E94E7074B
:1012100060E083E10E94E70760E080E10E94E70769
:1012200060E08FE00E94E70780915B0387FD07C0C5
:1012300061E00E94E70780915B030E94C00781E0A4
:101240008093560360915C03663021F120915D0329
:1012500030915E03615031F070E08FEF95E00E94B5
:10126000BA1002C060E070E0F9014091590350915A
:101270005A03CF01821B930B8417950740F44081DA
:10128000469FC001479F900D11249193EECF86E0B9
:1012900080935C030E948D066AEF70E080E090E02E
:1012A0000E943A0882E291E00E947F066BE671E0BC
:1012B00080E793E00E9454026BE671E08AE693E0D7
:1012C0000E945402E5E0CE2ED12CEE24E394F12CC2
:1012D00003E010E0A2E0AA2EB12CB4E02B2E312CBA
:1012E00088EB92E00E943801181619060CF0C0C075
:1012F00089E291E00E947F0665E371E0CE010796E6
:101300000E946B0288EB92E00E943801892B41F128
:1013100062E070E080E090E00E943A0888EB92E0A2
:101320000E9416018B33E1F089831A828B849C849E
:101330002FEF821A920AB401CE0107960E94FA0199
:10134000882301F32F8138858B859C85BE016F5FD3
:101350007F4F820F931F0E94DA129C868B86D2CF1A
:101360004B855C856F81788588EB92E00E94D9007F
:1013700083E391E00E947F0566E371E0CE01019670
:101380000E946B028B859C852D813E81821793077D
:1013900059F4892B59F0BE016F5F7F4FCE0107963C
:1013A0000E946D07982E04C0912C02C0992493943A
:1013B00089819A810E946C11992031F062E471E078
:1013C0008AE693E00E94540268E471E0CE0101963F
:1013D0000E946B028B859C852D813E81821793072D
:1013E00059F4892B59F0BE016F5F7F4FCE010796EC
:1013F0000E946D07982E04C0912C02C099249394EA
:1014000089819A810E946C11992031F063E571E025
:101410008AE693E00E94540268E571E0CE010196ED
:101420000E946B028B859C852D813E8182179307DC
:1014300059F4892B59F0BE016F5F7F4FCE0107969B
:101440000E946D07982E04C0912C02C09924939499
:1014500089819A810E946C11992031F06BE671E0CC
:101460008AE693E00E9454028F8198850E946C1155
:1014700080919A02811101C140E753E04A565340DE
:10148000A1F060916A0370916B036115710549F0D9
:1014900040916E0350916F0380E793E00E94330206
:1014A00004C080E793E00E94210282E491E00E9460
:1014B0004D07882309F44EC368EE73E080E090E0A6
:1014C0000E943A0881E080939A02109305010093EC
:1014D00004011093AA020093A90210931D02009325
:1014E0001C021093A5010093A401B0921F02A092C8
:1014F0001E021093A7010093A601F0922102E09230
:1015000020021093A9010093A8010E945903809121
:101510009A0281110E94D80268EE73E080E090E0A8
:101520000E943A08812C912C40E050E06FEF70E06F
:10153000C4010E940B0640E050E06FEF70E0C40170
:10154000865A9F4F0E940B069FEF891A990AEAE07C
:101550008E16910449F7812C912C40E050E06FEFFA
:1015600070E0C4010E940B0640E050E06FEF70E0B5
:10157000C40109960E940B06FAE08F0E911C24E626
:101580008216910451F70E948D0668EE73E080E0A8
:1015900090E00E943A08812C912C40E05FEF6FEFC1
:1015A00070E0C4010E940B0640E05FEF6FEF70E057
:1015B000C401865A9F4F0E940B063FEF831A930A7D
:1015C0004AE08416910449F7812C912C40E05FEFAA
:1015D0006FEF70E0C4010E940B0640E05FEF6FEF19
:1015E00070E0C40109960E940B065AE0850E911C1A
:1015F00084E68816910451F70E948D0668EE73E028
:1016000080E090E00E943A08812C912C40E05FEF4E
:1016100060E070E0C4010E940B0640E05FEF60E014
:1016200070E0C401865A9F4F0E940B069FEF891AF3
:10163000990AEAE08E16910449F7812C912C40E03A
:101640005FEF60E070E0C4010E940B0640E05FEFD6
:1016500060E070E0C40109960E940B06FAE08F0E6C
:10166000911C24E68216910451F70E948D0668EEC3
:1016700073E080E090E00E943A08E4E8F0E08491B2
:10168000E8E9F0E09491E6EBF0E09490992061F0C5
:1016900081110E949707E92DF0E0EE0FFF1FE85936
:1016A000FF4FA591B4918C9182E10E9423084C01D7
:1016B00083E10E9423088039F1E09F072CF4F09227
:1016C000AA02E092A9021BC0893592402CF0B09288
:1016D000AA02A092A90213C030E9831631E0930652
:1016E0002CF41093AA020093A90209C049E58416BC
:1016F00042E0940624F03092AA022092A90280E1EE
:101700000E9423084C018FE00E942308803951E099
:1017100095072CF4B092AA02A092A9021BC08935A9
:1017200092402CF0F092AA02E092A90213C0F0E9D4
:101730008F16F1E09F062CF43092AA022092A902A3
:1017400009C029E5821622E0920624F01093AA022D
:101750000093A90280919A02882309F4F6C182E4D9
:1017600091E00E944D07882309F457C18FB7F89480
:101770004090AC025090AD026090AE027090AF020B
:101780008FBF80919D0290919E02A0919F02B09187
:10179000A0028A569F4FAF4FBF4F40910401509116
:1017A0000501052E000C660B770B841B950BA60B11
:1017B000B70B84159505A605B7050CF0C6C12FB764
:1017C000F8948091AC029091AD02A091AE02B091DC
:1017D000AF022FBF80939D0290939E02A0939F0221
:1017E000B093A00280919A02882309F44BC08091A3
:1017F000040190910501FC01EE0FFF1FDF01A45EC3
:10180000BD4FEC55FE4F12973297181619066CF41F
:1018100001972D913C91119713963C932E9312971B
:101820002081318133832283EECF2091A902309130
:10183000AA0222303105C1F04CF42130310511F5F6
:101840008091A4019091A501019713C080911C0281
:1018500090911D022330310529F02430310591F497
:1018600001970CC001960AC08091A4019091A50136
:1018700001969093A5018093A40104C090931D024A
:1018800080931C0220911C0230911D028091A201C4
:101890009091A30128173907B1F42091A401309148
:1018A000A5018091A0019091A1012817390759F451
:1018B0008091040190910501019690930501809318
:1018C00004010E94590380919A02811108C08091FD
:1018D0009A02882309F482C00E94D8027FC08091B6
:1018E0001C0290911D020E94F3058091A401909129
:1018F000A5010E94F30580E791E00E947F06809099
:101900001C0290901D02C4010197089718F01092D4
:101910009A022EC04091A4015091A501CA010197DD
:101920000897A8F7809104019091050160919A02AF
:10193000FC01EE0FFF1FDF01A45EBD4FEC55FE4F13
:10194000181619069CF48430910564F02D913C9191
:1019500011978216930631F4208131814217530783
:1019600009F460E0019712973297EACF60939A02E8
:1019700080919A028111ABCF86E791E00E947F06A9
:1019800068EE73E080E090E00E943A0888E0882EDC
:10199000912C40E050E060E070E08FEF90E00E941A
:1019A0003C0564E670E080E090E00E943A080E9406
:1019B0008D0640E050E060E070E080E090E00E9442
:1019C0003C0564E670E080E090E00E943A080E94E6
:1019D0008D0631E0831A9108E1F679CF8AE791E02C
:1019E0000E947F052FB7F8948091AC029091AD02D0
:1019F000A091AE02B091AF022FBFA3019201281BAC
:101A0000390B4A0B5B0BCA01B9014AE00E949105F0
:101A100083E391E00E947F0598C083E591E00E94F6
:101A20004D07882309F491C08FB7F8944090AC0219
:101A30005090AD026090AE027090AF028FBF809167
:101A4000A5029091A602A091A702B091A8028A5681
:101A50009F4FAF4FBF4F4091980250919902052E72
:101A6000000C660B770B841B950BA60BB70B84152C
:101A70009505A605B70564F44092A5025092A6020A
:101A80006092A7027092A8020E940E040E94B40302
:101A90008091A1029091A202A091A302B091A40210
:101AA00086509F4FAF4FBF4F84159505A605B705CC
:101AB0000CF04BC04092A1025092A2026092A3028D
:101AC0007092A40280919A028823E9F18091A90280
:101AD0009091AA028330910519F0049701F12FC06B
:101AE00080919402909195022091960230919702F4
:101AF00049E050E0421B530B841795072CF40196E4
:101B0000909395028093940287E891E00E947F056C
:101B100080919402909195020E94F30510C08091EB
:101B20009402909195022091960230919702281785
:101B300039072CF4019790939502809394021092A8
:101B4000AA021092A9020E94B4030E948D060E946C
:101B5000DF01C6CB83E591E00E944D078111DEC015
:101B60008BE691E00E944D07882309F486CD812CF5
:101B7000912C90929C0280929B0288EB92E00E94B2
:101B80003801181619069CF040910201509103018A
:101B9000B40180910001909101010E943C050E94D6
:101BA0008D0665E070E080E090E00E943A083FEF2B
:101BB000831A930A4FEF84169104D9F688248A94E5
:101BC000912C909201018092000188EB92E00E949A
:101BD0003801181619068CF040910201509103014A
:101BE0006EEF70E0C4010E943C050E948D0665E026
:101BF00070E080E090E00E943A0851E0851A910878
:101C000001F7812C912C909203018092020188EBC4
:101C100092E00E943801181619067CF0A4016EEFBC
:101C200070E081E090E00E943C050E948D0665E036
:101C300070E080E090E00E943A088FEF881A980ADE
:101C40009FEF89169104F9F688248A94912C90923A
:101C50009C0280929B0288EB92E00E943801181649
:101C600019067CF04EEF50E0B40181E090E00E9454
:101C70003C050E948D0665E070E080E090E00E94E7
:101C80003A08E1E08E1A910811F7812C912C90927C
:101C900001018092000188EB92E00E943801181641
:101CA00019067CF04EEF50E061E070E0C4010E9444
:101CB0003C050E948D0665E070E080E090E00E94A7
:101CC0003A08FFEF8F1A9F0A2FEF82169104F9F658
:101CD00088248A94912C909203018092020188EBCF
:101CE00092E00E943801181619067CF0A40161E008
:101CF00070E08EEF90E00E943C050E948D0665E04A
:101D000070E080E090E00E943A0831E0831A910888
:101D100011F783E691E00E947F06AFCC81E08093CB
:101D20009A021092AA021092A902D0929502C09231
:101D30009402F0929702E0929602D0929F01C09294
:101D40009E01F0929D01E0929C01D0929B01C09275
:101D50009A01D0929901C092980110929902109222
:101D600098020E94B40389CC80915D0390915E0338
:101D70000E946C1180915B0387FD03C060E00E94AC
:101D8000E70780916A0390916B030E946C11809128
:101D90007003909171030C946C11CF93DF931092A8
:101DA000BB021092BA0288EE93E0A0E0B0E080930C
:101DB000BC029093BD02A093BE02B093BF0284E127
:101DC00091E09093B9028093B80285EC90E09093F3
:101DD000C5028093C40284EC90E09093C702809384
:101DE000C60280EC90E09093C9028093C80281EC17
:101DF00090E09093CB028093CA0282EC90E09093A3
:101E0000CD028093CC0286EC90E09093CF02809339
:101E1000CE021092D1021092D2021092D3021092EE
:101E2000D40262E971E080E793E00E946B0262E90C
:101E300071E08AE693E00E946B02109256031092C2
:101E40005C03109263031092640310926503109276
:101E5000660381E08093620380935F0310926003C6
:101E600092E09093610380935503CCE2D1E0D0934C
:101E70005A03C09359038CE291E00E94D4109093CE
:101E80005E0380935D03009769F0FC019E0111924F
:101E900021503040E1F784E690E09093580380931E
:101EA000570308C010925A03109259031092580316
:101EB0001092570382E080935B038091560388233E
:101EC00039F061E082E00E94E70782E00E94C007EB
:101ED000E0EBF0E0E491F0E0EE0FFF1FEC55FF4F78
:101EE000859194919093680380936703E2E9F0E011
:101EF000E491E0936903DF91CF9108958F929F92CF
:101F0000AF92BF92CF92DF92EF92FF92CF93DF9387
:101F1000EC01688179818A819B8161157105810558
:101F2000910521F464E279ED8BE597E02DE133EF43
:101F300041E050E00E94201049015A019B01AC0190
:101F4000A7EAB1E40E943F106B017C01ACEEB4EF54
:101F5000A50194010E944D10DC01CB018C0D9D1D4B
:101F6000AE1DBF1DB7FF03C00197A109B04888830C
:101F70009983AA83BB83BC01CD019F77DF91CF9169
:101F8000FF90EF90DF90CF90BF90AF909F908F9099
:101F900008958F929F92AF92BF92CF92DF92EF926D
:101FA000FF92609106017091070180910801909164
:101FB0000901611571058105910521F464E279ED4E
:101FC0008BE597E02DE133EF41E050E00E942010D7
:101FD00049015A019B01AC01A7EAB1E40E943F10FC
:101FE0006B017C01ACEEB4EFA50194010E944D1091
:101FF000DC01CB018C0D9D1DAE1DBF1DB7FF03C0C5
:102000000197A109B0488093060190930701A0931E
:102010000801B0930901BC01CD019F77FF90EF90BB
:10202000DF90CF90BF90AF909F908F900895609376
:1020300006017093070180930801909309010895A8
:10204000052E97FB1EF400940E94371057FD07D011
:102050000E94891007FC03D04EF40C943710509561
:102060004095309521953F4F4F4F5F4F0895909584
:102070008095709561957F4F8F4F9F4F08950E9477
:10208000AB10A59F900DB49F900DA49F800D911D46
:1020900011240895B7FF0C943F100E943F10821B3B
:1020A000930B08952F923F924F925F926F927F927F
:1020B0008F929F92AF92BF92CF92DF92EF92FF9258
:1020C0000F931F93CF93DF93CDB7DEB7CA1BDB0B04
:1020D0000FB6F894DEBF0FBECDBF09942A883988A9
:1020E00048885F846E847D848C849B84AA84B984B0
:1020F000C884DF80EE80FD800C811B81AA81B981BC
:10210000CE0FD11D0FB6F894DEBF0FBECDBFED01CF
:102110000895A1E21A2EAA1BBB1BFD010DC0AA1F28
:10212000BB1FEE1FFF1FA217B307E407F50720F040
:10213000A21BB30BE40BF50B661F771F881F991FBB
:102140001A9469F760957095809590959B01AC0104
:10215000BD01CF010895A29FB001B39FC001A39F0D
:10216000700D811D1124911DB29F700D811D1124D0
:10217000911D0895AA1BBB1B51E107C0AA1FBB1FDD
:10218000A617B70710F0A61BB70B881F991F5A9503
:10219000A9F780959095BC01CD010895EE0FFF1F22
:1021A0000590F491E02D09940F931F93CF93DF9343
:1021B0008230910510F482E090E0E0917803F09194
:1021C000790320E030E0A0E0B0E0309719F14081E1
:1021D00051810281138148175907C8F08417950768
:1021E00069F4109731F012960C93129713961C9382
:1021F00027C0009378031093790322C0211531057D
:1022000019F04217530718F49A01BD01EF01DF01DD
:10221000F801DBCF21153105F9F0281B390B2430EB
:10222000310580F48A819B816115710521F0FB01E4
:102230009383828304C09093790380937803FE0193
:10224000329644C0FE01E20FF31F81939193225016
:102250003109398328833AC020917603309177037E
:10226000232B41F420910C0130910D013093770321
:102270002093760320910A0130910B01211531053D
:1022800041F42DB73EB740910E0150910F01241B30
:10229000350BE0917603F0917703E217F307A0F492
:1022A0002E1B3F0B2817390778F0AC014E5F5F4FAC
:1022B0002417350748F04E0F5F1F50937703409364
:1022C00076038193919302C0E0E0F0E0CF01DF91CB
:1022D000CF911F910F910895CF93DF93009709F449
:1022E00081C0FC01329713821282A0917803B091D1
:1022F0007903109781F420813181820F931F2091FF
:102300007603309177032817390751F5F093770357
:10231000E093760367C0ED0120E030E0CE17DF07E1
:1023200040F44A815B819E0141155105F1F0EA01BB
:10233000F5CFD383C28340815181840F951FC81785
:10234000D90759F488819981840F951F029691834A
:1023500080838A819B81938382832115310529F4AF
:10236000F0937903E09378033DC0E901FB83EA83AE
:1023700049915991C40FD51FEC17FD0761F4808175
:102380009181840F951F0296E90199838883828148
:1023900093819B838A83E0E0F0E012968D919C917B
:1023A0001397009719F0FD01DC01F7CF8D919C91F7
:1023B00011979D012E5F3F4F820F931F209176034F
:1023C000309177032817390769F4309729F4109270
:1023D00079031092780302C013821282B0937703BC
:1023E000A0937603DF91CF910895A0E0B0E0EBEFEA
:1023F000F1E10C945610EC01009721F4CB010E94FE
:10240000D410B4C0FC01E60FF71F9C012250310923
:10241000E217F30708F4A8C0D9010D911C91119798
:1024200006171707B0F00530110508F49BC0C80166
:1024300004978617970708F495C002501109061BE8
:10244000170B019311936D937C93CF010E946C1134
:1024500089C05B01A01AB10A4C01800E911EA091A7
:102460007803B0917903612C712CE12CF12C109739
:1024700009F446C08D919C911197A815B905B1F545
:102480006C0142E0C40ED11CCA14DB0478F14C018B
:102490008A189B08640142E0C40ED11C1296BC90BD
:1024A00012971396AC91B5E0CB16D10440F0B282EE
:1024B000A38391828082D9016D937C9309C00E5FC2
:1024C0001F4F800F911FF90191838083EB2DFA2F0D
:1024D000E114F10431F0D7011396FC93EE931297B7
:1024E00041C0F0937903E09378033CC06816790605
:1024F00008F43C017D0112960D90BC91A02DB7CF40
:10250000809176039091770388169906E1F4661618
:102510007706C8F480910A0190910B01009741F46D
:102520008DB79EB740910E0150910F01841B950B02
:10253000E817F907C8F4F0937703E0937603F901FD
:10254000718360830FC0CB010E94D4107C0100977F
:1025500059F0A801BE010E94C812CE010E946C1160
:10256000C70104C0CE0102C080E090E0CDB7DEB765
:10257000EEE00C94721081E090E0F8940C94E1127B
:102580009111089581548A5108F4805E855A089506
:10259000FB01DC0102C001900D9241505040D8F780
:1025A0000895FB01DC018D91019080190110D9F390
:1025B000990B0895FB01DC0101900D920020E1F7D9
:1025C000089510E0C2E6D0E004C0FE010E94CE10E3
:0C25D0002196C336D107C9F7F894FFCF5D
:1025DC00FF00FF0003000100000000007A038000F0
:1025EC00000000007001D9000701BD01380116017F
:1025FC002A0152656164792E0052656365696465D0
:10260C00643A000D0A0047616D653A20536E616BA8
:10261C006500736E616B650047616D653A20506FA4
:10262C006E6700706F6E670047616D653A20496494
:10263C006C650052756E6E696E672069646C65001E
:10264C002D2D2D2D2D0044696500546F74616C2067
:10265C0074696D653A200033200048495420415478
:08266C0020006E6F6E65000096
:00000001FF
